:020000040000FA
:10004000903098008316FF30990024309800831276
:1000500098178316F03086000710871007110030BC
:1000600085008800890006309F00811383120030CC
:10007000D00089000714871007154022071040227E
:100080000F308800402207114022071540223830E7
:10009000880040220711402207158A291A08850086
:1000A0000A300502031992290D3005020319F129BE
:1000B00050080030C000C1000030C2006C2022088F
:1000C000C1004002031D6928C20A4022031D5E28A8
:1000D00088284108C0005C280130A000F730A1004A
:1000E000210886002008861F8628033E061F8628D2
:1000F000033E861E8628033E061E8628FF30B0007B
:10010000B00AFF30A00AA10C21187028A200080034
:100110004008B000B00A03194E288E2840080A3C57
:10012000B000300803199C2840080B3CB000300890
:100130000319A1284008CF28500803194E28D003DE
:10014000EE285008043CB00030080319D001D00A52
:100150000030C000C1005008013CB0003008031955
:10016000C3285008023CB00030080319C6285008C4
:10017000033CB00030080319C9285008043CB00003
:1001800030080319CC286530F000EE286530F10006
:10019000EE286530F200EE286530F300EE285008B6
:1001A000043CB00030080319D001D00A5008013CCB
:1001B000B00030080319C3285008023CB0003008D2
:1001C0000319C6285008033CB00030080319C92899
:1001D0005008043CB00030080319CC284008303ED9
:1001E0009900500803198A295008013CB0003008D2
:1001F00003190C295008023CB000300803191E29CD
:100200005008033CB0003008031939295008043C59
:10021000B000300803195D2907150710402201308E
:100220008800402207114022071507144022700859
:10023000303E2A308800402207114E28071507104B
:100240004022013088004022071140220715071480
:1002500040227008303E2A30880040220711402298
:10026000071540227108303E2A30880040220711CD
:100270004E28071507104022013088004022071140
:1002800040220715071440227008303E2A308800AB
:10029000402207114022071540227108303E2A30C3
:1002A0008800402207114022071540227208303E84
:1002B0002A308800402207114E28071507104022D7
:1002C0000130880040220711402207150714402200
:1002D0007008303E2A30880040220711402207155E
:1002E00040227108303E2A30880040220711402207
:1002F000071540227208303E2A308800402207113C
:100300004022071540227308303E2A3088004022E0
:1003100007114E280715071040220130880040229F
:1003200007114E280715071040220130880040228F
:100330000711402207150714492241308800402246
:100340000711402207154922433088004022071137
:1003500040220715492243308800402207114022DD
:100360000715492245308800402207114022071511
:1003700049225030880040220711402207154922A7
:1003800054308800402207114022071507144922E3
:1003900045308800402207114022071507144922E2
:1003A000443088004022071140220715492220309E
:1003B000880040220711402207154922203088007A
:1003C000402207114022071549223A308800402276
:1003D00007114022071549222930880040220711C1
:1003E000F02907150710402201308800402207112C
:1003F0004022071507144922443088004022071183
:10040000402207154922453088004022071140222A
:10041000071549224E308800402207114022071557
:1004200049224930880040220711402207154922FD
:1004300045308800402207114022071549224430E8
:1004400088004022071140220715492220308800E9
:1004500040220711402207154922203088004022FF
:1004600007114022071549223A308800402207111F
:1004700040220715492228308800402207113F2AD0
:100480000930E1002130E000E00B442AE10B422A70
:100490000800FF30E1003F30E000E00B4D2AE10BA7
:0404A0004B2A0800DB
:00000001FF
