:020000040000FA
:10004000903098008316FF30990024309800831276
:1000500098178316F03086000710871007110030BC
:1000600085008800890006309F00811383120030CC
:10007000D00089000714871007154F2207104F2260
:100080000F3088004F2207114F2207154F223830BA
:1000900088004F2207114F2207158F29FF30D50006
:1000A000FF30D6001A0885000A3005020319972987
:1000B0000D3005020319F62950080030C000C100B8
:1000C0000030C20070202208C1004002031D6D28CC
:1000D000C20A4F22031D62288D284108C0006028F3
:1000E00045220130A000F730A10021088600200839
:1000F000861F8B28033E061F8B28033E861E8B28F7
:10010000033E061E8B28FF30B000B00AFF30A00A65
:10011000A10C21187528A20008004008B000B00A00
:1001200003195228932840080A3CB00030080319EC
:10013000A12840080B3CB00030080319A62840084D
:10014000D428500803195228D003F3285008043C3F
:10015000B00030080319D001D00A0030C000C1003F
:100160005008013CB00030080319C8285008023C70
:10017000B00030080319CB285008033CB000300809
:100180000319CE285008043CB00030080319D128C8
:100190006530F000F3286530F100F3286530F20097
:1001A000F3286530F300F3285008043CB000300811
:1001B0000319D001D00A5008013CB00030080319DF
:1001C000C8285008023CB00030080319CB2850085A
:1001D000033CB00030080319CE285008043CB0009E
:1001E00030080319D1284008303E990050080319FF
:1001F0008F295008013CB00030080319112950081C
:10020000023CB0003008031923295008033CB00019
:10021000300803193E295008043CB0003008031987
:100220006229071507104F22013088004F2207115D
:100230004F22071507144F227008303E2A308800DD
:100240004F2207115228071507104F22013088004E
:100250004F2207114F22071507144F227008303E16
:100260002A3088004F2207114F2207154F227108AC
:10027000303E2A3088004F220711522807150710F8
:100280004F22013088004F2207114F220715071413
:100290004F227008303E2A3088004F2207114F222B
:1002A00007154F227108303E2A3088004F2207116F
:1002B0004F2207154F227208303E2A3088004F2205
:1002C00007115228071507104F22013088004F22CE
:1002D00007114F22071507144F227008303E2A30AD
:1002E00088004F2207114F2207154F227108303E18
:1002F0002A3088004F2207114F2207154F2272081B
:10030000303E2A3088004F2207114F2207154F2216
:100310007308303E2A3088004F22071152280715F3
:1003200007104F22013088004F220711522807156D
:1003300007104F22013088004F2207114F22071566
:1003400007145822413088004F2207114F22071509
:100350005822433088004F2207114F220715582298
:10036000433088004F2207114F220715582245308D
:1003700088004F2207114F2207155822503088005D
:100380004F2207114F2207155822543088004F2260
:1003900007114F22071507145822453088004F22B5
:1003A00007114F22071507145822443088004F22A6
:1003B00007114F2207155822203088004F220711BD
:1003C0004F2207155822203088004F2207114F2254
:1003D000071558223A3088004F2207114F2207157F
:1003E0005822293088004F220711F52907150710D8
:1003F0004F22013088004F2207114F2207150714A2
:100400005822443088004F2207114F2207155822E6
:10041000453088004F2207114F22071558224E30D1
:1004200088004F2207114F220715582249308800B3
:100430004F2207114F2207155822453088004F22BE
:1004400007114F2207155822443088004F22071108
:100450004F2207155822203088004F2207114F22C3
:1004600007155822203088004F2207114F22071508
:1004700058223A3088004F2207114F220715582280
:10048000283088004F220711442A5508031DD50340
:1004900003190800D5030319080063000800093098
:1004A000E1002130E000E00B532AE10B512A080063
:1004B000FF30E1003F30E000E00B5C2AE10B5A2AFC
:0204C000080032
:00000001FF
