:020000040000FA
:100000008316860187010F308800831286018701DD
:10001000403086000F3087006D208801081688194F
:10002000162808191B28881820282528061631307C
:1000300087006D2008280616323087006D200828BA
:100040000616333087006D20082888018816881925
:100050002E2808193328881838283D2806163430E9
:1000600087006D2008280616353087006D20082887
:100070000616363087006D20082888010817881971
:10008000462808194B288818502855280616373056
:1000900087006D2008280616383087006D20082854
:1000A0000616393087006D200828880188178819BE
:1000B0005E2808196328881868280D28061641301C
:1000C00087006D2008280616303087006D2008282C
:1000D0000616433087006D20082872200613722010
:1000E000061708007F30E1007F30E000E00B762843
:0600F000E10B742808007A
:00000001FF
