:020000040000FA
:100040008316F030860000308700880006309F005D
:100050008501811383120030D0008316FF30990090
:1000600024309800831298170714871007157C21F5
:1000700007107C210F3088007C2107117C21071597
:100080007C21383088007C2107117C210715003045
:10009000C000C1000030C2005A202208C100400246
:1000A000031D5728C20A7C21031D4C2876284108CD
:1000B000C0004A280130A000F730A10021088600C6
:1000C0002008861F7428033E061F7428033E861EE0
:1000D0007428033E061E7428FF30B000B00AFF30BB
:1000E000A00AA10C21185E28A20008004008B00058
:1000F000B00A031947287C2840080A3CB0003008A1
:1001000003198F2840080B3CB000300803199428CD
:1001100040080C3CB000300803198529C22850085B
:1001200003194728D003E1285008043CB0003008E8
:100130000319D001D00A0030C000C1005008013CB2
:10014000B00030080319B6285008023CB00030084F
:100150000319B9285008033CB00030080319BC2823
:100160005008043CB00030080319BF284008F000D4
:10017000E1284008F100E1284008F200E1284008A9
:10018000F300E1285008043CB00030080319D00106
:10019000D00A5008013CB00030080319B6285008B6
:1001A000023CB00030080319B9285008033CB000E5
:1001B00030080319BC285008043CB000300803196B
:1001C000BF282208990019088500500803197429CE
:1001D0005008013CB0003008031900295008023CC7
:1001E000B0003008031911295008033CB000300852
:1001F00003192A295008043CB000300803194B2980
:10020000071507107C21013088007C2107117C2113
:10021000071507147C217008303E88007C210711E7
:100220004728071507107C21013088007C21071121
:100230007C21071507147C217008303E88007C2142
:1002400007117C2107157C217108303E88007C2134
:1002500007114728071507107C21013088007C21F1
:1002600007117C21071507147C217008303E880097
:100270007C2107117C2107157C217108303E880004
:100280007C2107117C2107157C217208303E8800F3
:100290007C2107114728071507107C2101308800B1
:1002A0007C2107117C21071507147C217008303E42
:1002B00088007C2107117C2107157C217108303EC4
:1002C00088007C2107117C2107157C217208303EB3
:1002D00088007C2107117C2107157C217308303EA2
:1002E00088007C2107114728071507107C21013061
:1002F00088007C21071147280930E1002130E00007
:0C030000E00B8029E10B7E290800472853
:00000001FF
