:020000040000FA
:020000002028B6
:100040008316F030860085018801811306309F00F9
:1000500083120030850088000030C000C1000030ED
:100060003D202208C1004002031D3A286020031DE4
:10007000302859284108C0002F280130A000F7304F
:10008000A100210886002008861F5728033E061F6E
:100090005728033E861E5728033E061E5728FF306A
:1000A000B000B00AFF30A00AA10C21184128A2001C
:1000B00008004008B000B00A03192C2869202C2839
:1000C0000930E1002130E000E00B6428E10B6228F8
:1000D00008004008880099008316FF3099002430FA
:1000E000980083129817903098001A08850008002D
:1000F000903098008316FF3099000430980000304B
:0A010000880083121A088500080029
:00000001FF
