:020000040000FA
:020000002028B6
:10004000903098008316880106309900203098007F
:1000500083120130990088005720023099008800EF
:1000600057200330990088005720043099008800F9
:1000700057200530990088005720063099008800E5
:1000800057200730990088005720083099008800D1
:10009000572009309900880057200A3099008800BD
:1000A0005720990183169801831298016428023021
:1000B000E200FF30E100FF30E000E00B5D28E10BE3
:0800C0005B28E20B592808003F
:00000001FF
