:020000040000FA
:100000008316003087000F3086008312003087008F
:1000100054208601061686191228061915288618F6
:1000200018281B280130870008280230870008287C
:100030000330870008285420860186168619252853
:100040000619282886182B282E280430870008280F
:1000500005308700082806308700082854208601CC
:1000600006178619382806193B2886183E28412885
:1000700007308700082808308700082809308700E3
:10008000082854208601861786194B2806194E2801
:100090008618512808280A30870008280030870071
:1000A00008280C30870008286030E1006030E0004C
:0A00B000E00B5828E10B5628080069
:00000001FF
